:020000040800F2
:100000004010002001010008B11A0008B31A0008CE
:10001000B51A0008B71A0008B91A00080000000055
:10002000000000000000000000000000BB1A0008F3
:10003000BD1A000800000000BF1A0008C11A00081D
:100040001B0100081B0100081B0100081B01000820
:100050001B0100081B0100081B0100081B01000810
:100060001B0100081B010008C51A00081B0100083D
:100070001B0100081B0100081B0100081B010008F0
:100080001B0100081B0100081B0100081B010008E0
:100090001B0100081B0100081B010008151B0008BC
:1000A0001B0100081B0100081B0100081B010008C0
:1000B0001B0100081B0100081B0100081B010008B0
:1000C0001B0100081B0100081B0100081B010008A0
:1000D0001B010008171B00089D1B0008651C000879
:1000E000C31A00081B0100081B010008DFF80CD030
:1000F00004F09AFD00480047991A000840100020BB
:100100000648804706480047FEE7FEE7FEE7FEE7B1
:10011000FEE7FEE7FEE7FEE7FEE7FEE7CD19000893
:10012000ED0000082A4908432A490860704770B565
:100130000F23C27801260178002A1ED0254A1268B2
:1001400002F4E062C2F5E062120AC2F10404D34094
:100150004578A54082781A402A43120101F1E02136
:1001600081F80024007800F01F018E4040098000D3
:1001700000F1E020C0F8006170BD01F01F00864072
:100180004809800000F1E020C0F8806170BD124A8B
:10019000114001430F48001F016070470D4A121DB6
:1001A000002903D011680143116070471168814331
:1001B000116070474FF0E021042804D0086920F056
:1001C000040008617047086940F004000861704746
:1001D0000000FA050CED00E080FFFF1F10B5DB49C1
:1001E00088420AD144150121204600F008FF20462C
:1001F000BDE81040002100F002BFD54988420AD175
:1002000004150121204600F0FAFE2046BDE810400A
:10021000002100F0F4BECF4988420AD10121CC036D
:10022000204600F0ECFE2046BDE81040002100F022
:10023000E6BE10BD10B54268C74B1A400C790B687A
:1002400042EA0422134343608268C44B1A40D1E956
:10025000024323434C7942EA440213438360C26A57
:1002600022F47002097C491EC9B242EA0151C162FE
:1002700010BD00210160017141718160C1600121E7
:1002800001747047002904D0816841F00101816048
:100290007047816821F0010181607047002904D016
:1002A000816841F4807181607047816821F48071B8
:1002B00081607047C9B2002A03D042680A43426095
:1002C000704742688A4342607047816841F0080184
:1002D00081607047014600208968090700D5012028
:1002E0007047816841F00401816070470146002039
:1002F0008968490700D501207047002904D081682A
:1003000041F4A00181607047816821F4A0018160FF
:100310007047014600208968490200D501207047D6
:10032000426822F46042491E42EA4131416070470E
:10033000002904D0416841F4006141607047416880
:1003400021F400614160704770B5072609290AD978
:10035000C568A1F10A0404EB4404A640B543A340D8
:100360001D43C56007E0056901EB4104A640B543A4
:10037000A3401D4305611F23072A09D2446B521E67
:1003800002EB820293409C4391400C43446370BD56
:100390000D2A09D2046BD21F02EB820293409C43C8
:1003A00091400C43046370BDC46A0D3A02EB8202B3
:1003B00093409C4391400C43C46270BD002904D01B
:1003C000816841F4801181607047816821F4801157
:1003D00081607047C06C80B270475C484C300068E8
:1003E0007047002904D0416841F480614160704742
:1003F000416821F4806141607047002904D0416860
:1004000041F4805141607047416821F4805141605E
:100410007047826822F4E0420A43826070470029F4
:1004200004D0816841F4004181607047816821F403
:10043000004181607047002904D0816841F40211B5
:1004400081607047816821F4021181607047014624
:1004500000208968890200D50120704770B5072601
:1004600009290AD9C568A1F10A0404EB4404A6408D
:10047000B543A3401D43C56007E0056901EB410496
:10048000A640B543A3401D430561836BC3F30154EC
:10049000121B921C02EB82021F249440A343914042
:1004A0000B43836370BD826B22F44012491E42EA03
:1004B00001518163704708B500900098084400908E
:1004C0000098026008BD08B50090009808442830E4
:1004D00000900098006880B208BD4268204B1A4026
:1004E0000A4342607047416282627047426822F06C
:1004F0001F020A434260704714490831002804D0A3
:10050000086840F4000008607047086820F40000A4
:10051000086070470246002012680A4200D001209D
:100520007047C9430160704710B5024600200B0AAE
:100530005468C9B20C401168194202D0002C00D096
:10054000012010BD090AC943016070470024014021
:1005500000280140003C0140FFFEF0FFFDF7F1FFE5
:10056000FFFD3FFF384900200860091D0860091D94
:100570000860091D08603449344814310860704728
:1005800030B5314A83790168002B2AD013688B4338
:100590001360111D0B680468A3430B6001791144BB
:1005A0000B68046823430B60274C083421680368F8
:1005B00099432160231D19680568A9431960417991
:1005C000102905D011440A68006802430A6030BD52
:1005D00021680268114321601968006801431960AD
:1005E00030BD0079104402688A43026030BD0021AA
:1005F000016001710C224271817170471249103102
:100600000A6802430A607047014600200E4A14320D
:1006100012680A4200D0012070470B49143108606B
:10062000704701460020084A12680A40064B1433FE
:100630001B680B4202D0002A00D0012070470249FB
:10064000143108607047000000040140FFFF0F00F4
:10065000FE4A116801F03801014311607047FB49FF
:100660000A6822F008020A600A6802430A607047BA
:10067000F6490A6822F010020A600A6802430A601A
:100680007047F248F2494160F24941607047EF48D3
:10069000EF494160EF4941607047EC48016941F022
:1006A000800101617047E948016941F08001016101
:1006B00070470420E549CA68D20701D0012070477D
:1006C000CA68520701D502207047C968C906FBD520
:1006D0000320704700B50346FFF7EBFF02E0FFF78A
:1006E000E8FF5B1E012801D1002BF8D1002B00D1BF
:1006F000052000BD70B505464FF430263046FFF7A3
:10070000E9FF042811D1D14C206940F0020020619A
:100710006561206940F0400020613046FFF7DAFF54
:10072000216941F6FD721140216170BD30B54FF471
:1007300030252846FFF7CEFF042810D1C34C20698E
:1007400040F004002061206940F04000206128460C
:10075000FFF7C0FF216941F6FB721140216130BDF6
:1007600000B50346FFF7A5FF02E0FFF7A2FF5B1EFF
:10077000012801D1002BF8D1002B00D1052000BDAC
:1007800030B54FF430252846FFF7EAFF042810D192
:10079000AE4C206940F004002061206940F0400028
:1007A00020612846FFF7DCFF216941F6FB7211400A
:1007B000216130BD0020A549C969890700D5012004
:1007C000704770B5A525FFF7F5FF00B100254FF480
:1007D00030263046FFF77EFF042818D19B4C9C48FA
:1007E000A0609C48A060206940F020002061206942
:1007F00040F0400020613046FFF76CFF41F6EF7695
:10080000042805D0052802D021693140216170BD3E
:10081000206941F6DF7108402061206940F0100036
:1008200020618D4805804FF40050FFF753FF0528E5
:10083000EDD021693140216170BD2DE9F8410546B7
:100840000E46002000904FF400573846FFF742FF55
:1008500004280FD17D4C206940F0010020612E80DA
:10086000B8464046FFF736FFBF1E042804D0216972
:1008700039402161BDE8F881AD1C00950099300C2C
:1008800008804046FFF726FF216939402161F1E7E2
:10089000F0B506460D464FF400573846FFF71AFFED
:1008A00004280CD1694C206940F00100206135809A
:1008B0003846FFF70FFF2169BA1E11402161F0BDD4
:1008C000F0B505460E464FF400573846FFF702FFD5
:1008D000042813D15D4C5E48A0605E48A06020698A
:1008E00040F0100020612E803846FFF7F3FE052807
:1008F00004D0216941F6EF7211402161F0BD2DE96C
:10090000F043C043C4B2C0F30725C0F30746070E47
:100910004FF400594846FFF7DDFE04283CD1DFF8CC
:100920002C814B49C8F808104A49C8F80810D8F873
:10093000101041F01001C8F81010FF2C05D04648E7
:10094000083004804846FFF7C5FE042807D1FF2D74
:1009500005D041480A3005804846FFF7BBFE042811
:1009600007D1FF2E05D03C480C3006804846FFF7E3
:10097000B1FE042807D1FF2F05D037480E3007807D
:100980004846FFF7A7FE052806D0D8F8101041F614
:10099000EF721140C8F81010BDE8F08370B505463D
:1009A0004FF430263046FFF795FE042818D1274C27
:1009B0002748A0602748A060206940F020002061FF
:1009C000206940F0400020613046FFF783FE41F689
:1009D000DF71042805D0052802D022690A4022616F
:1009E00070BD206908402061206940F0100020613E
:1009F000194815B10021018001E0A5210180304690
:100A0000FFF768FE0528EBD0216941F6EF7211402F
:100A1000216170BD2DE9F04106460D4617460B4C8D
:100A20000B48A0600B48A0604FF400584046FFF709
:100A300051FE04281DD1206940F0100020613D4383
:100A40003543054945F0F800891C07E000200240C5
:100A500023016745AB89EFCD00F8FF1F08804046B2
:100A6000FFF738FE052804D0216941F6EF721140E6
:100A70002161BDE8F0811E48C069800870471C48AC
:100A8000006A704700201A490968890600D50120CC
:100A90007047174A002903D011690143116170475B
:100AA000116981431161704701460020104A0129F4
:100AB00004D0D2680A4200D001207047D169C9072A
:100AC000FBD0012070470A49C860704704200849DC
:100AD000CA68D20701D001207047CA68520701D501
:100AE00002207047C968C906FBD503207047000083
:100AF0000020024010B59C49884209D10121042000
:100B000000F07DFA0021BDE81040042000F077BA23
:100B10009649884209D10121082000F070FA00218D
:100B2000BDE81040082000F06ABA9149884209D116
:100B30000121102000F063FA0021BDE810401020D0
:100B400000F05DBA8B49884209D10121202000F0D4
:100B500056FA0021BDE81040202000F050BA864926
:100B6000884209D10121402000F049FA0021BDE866
:100B70001040402000F043BA8049884209D1012149
:100B8000802000F03CFA0021BDE81040802000F0F9
:100B900036BA7B4988420AD184150121204600F0EB
:100BA0002EFA2046BDE81040002100F028BA10BD02
:100BB00010B50121084600F022FA0021BDE81040DE
:100BC000012000F01CBA2DE9F0410022CC7804F09D
:100BD0000F03E40601D58C7823430C784FF00F0700
:100BE00014F0FF0F4FF0010C1CD005680CFA02F452
:100BF0000E882640A64211D1960007FA06F825EA8B
:100C0000080503FA06F848EA0505CE78282E02D032
:100C1000482E02D002E0446100E00461521C082A20
:100C2000E4D305600A88FF2A1ED94568002202F134
:100C300008060CFA06F40E882640A64210D196004B
:100C400007FA06F825EA080503FA06F848EA050552
:100C5000CE78282E00D14461CE78482E00D1046190
:100C6000521C082AE3D34560BDE8F0814FF6FF71BE
:100C70000180022181700421C1707047024600206A
:100C800092680A4200D001207047806880B27047A5
:100C900002460020D2680A4200D001207047C06896
:100CA00080B270470161704741617047002A01D0EE
:100CB0000161704741617047C160704741F4803203
:100CC00082618161826181698069704710B52D4BB5
:100CD0001A684FF68074224042EA001008431860F8
:100CE00010BD2949C8617047F0B5264C002801DACB
:100CF000E36900E06368C0F30346420D120185B268
:100D0000C0F301579540032F07D0C2020CD5032230
:100D1000B240934343F0706209E023F0706263686D
:100D200023F07063636002E0AB4343F0706201B193
:100D30002A43002801DAE261F0BD6260F0BD10B51F
:100D40008A07120F0F23934021F003040D49214419
:100D50008C689C438C608B68904003438B6010BD13
:100D60000949DC310860704700080140000C01406F
:100D7000001001400014014000180140001C014017
:100D8000002001400000014000002042B4480168FA
:100D900041F0010101604168B24A114041600168BF
:100DA000B14A11400160016821F48021016041686D
:100DB00021F4FE0141604FF41F0181607047A84992
:100DC0000A6822F480320A600A6822F480220A60EB
:100DD000B0F5803F07D0B0F5802F03D1086840F40C
:100DE000A02008607047086840F4803008607047B1
:100DF0000346002059099A4A01290AD002290AD03B
:100E0000516A03F01F02012393400B4200D00120DE
:100E100070471168F5E7116AF3E718B500200090F4
:100E20004FF4A0643120FFF7E3FF0099491C0091C3
:100E30000099A14201D00028F4D03120FFF7D8FF5B
:100E400008B1012018BD002018BD854A116821F0A5
:100E5000F80141EAC000106070478449086070479B
:100E60007F4B5A6822F47C12084310435860704745
:100E70007E49086670477A4A516821F003010143B0
:100E8000516070477648406800F00C007047744A23
:100E9000516821F0F001014351607047704A516878
:100EA00021F4E0610143516070476D4A516821F4BB
:100EB000605141EAC00050607047694A002903D080
:100EC000517A014351727047517A81435172704790
:100ED0006649D83108607047614A516821F4404141
:100EE0000143516070475E49002220310A7001F8C9
:100EF0002029012805D0042802D1052081F82000EE
:100F00007047012081F820007047594908607047F8
:100F100053490A6A02430A627047554944390860D6
:100F2000704710B54E4A516801F00C01514B002931
:100F300027D0042927D0082927D00360516801F061
:100F4000F00109094C4B5C5C0168E1404160546868
:100F500004F4E064240A1C5D21FA04F484605468FB
:100F600004F46054E40A1B5DD940C160526802F485
:100F70004042920B404B1B1F9A5CB1FBF2F10161A6
:100F800010BD0360DAE70360D8E7516801F470111F
:100F9000536803F48033022404EB914133B1536866
:100FA0009B0307D5354B59430160C7E7334B594382
:100FB0000160C3E72F4B59430160BFE7284A00296E
:100FC00003D05169014351617047516981435161B7
:100FD0007047234A002903D091690143916170470A
:100FE00091698143916170471D4A002903D0D169FD
:100FF0000143D1617047D1698143D1617047184A7B
:10100000002903D0D1680143D1607047D168814382
:10101000D1607047124A002903D011690143116160
:101020007047116981431161704711494039086067
:1010300070470E49C86470470949C871704708482D
:10104000416A41F080714162704701460020044AC4
:1010500092680A4200D001207047014988727047A7
:10106000001002400000FFF8FFFFF6FE00004242C1
:101070008004424200127A000400002000093D0072
:1010800010B5EC4988420AD101218C032046FFF7B4
:10109000B6FF2046BDE810400021FFF7B0BFE6498B
:1010A00088420AD101214C042046FFF7B3FF2046B5
:1010B000BDE810400021FFF7ADBFE04988420AD1EA
:1010C00001218C042046FFF7A5FF2046BDE8104013
:1010D0000021FFF79FBFDA4988420AD10121CC04E1
:1010E0002046FFF797FF2046BDE810400021FFF79C
:1010F00091BFD44988420AD101210C052046FFF74F
:1011000089FF2046BDE810400021FFF783BF10BDD6
:1011100030B585B004460D46208A4CF6FF71084074
:10112000E98801432182A0894EF6F3110840A9887D
:101130002A8911436A8902431143A181A08A4FF68B
:10114000FF410840A9890143A1826846FFF7E9FEF3
:10115000B848844201D1039800E00298A1890904AB
:1011600008D500EBC00101EB001029684900B0FB75
:10117000F1F007E000EBC00101EB001029688900E5
:10118000B0FBF1F06422B0FBF2F109010B096FF042
:1011900018056B4300EB8300A3891D044FF0320355
:1011A00007D503EBC000B0FBF2F000F007000843E6
:1011B00006E003EB0010B0FBF2F000F00F00084374
:1011C000208105B030BD4FF41651016000218180AF
:1011D000C18001810C2242818181704710B5038A50
:1011E0004FF2FF0213400A884C8822438C88C9883A
:1011F0000C4322431A43028210BD0021018041802A
:101200008180C1807047002904D0818941F4005158
:1012100081817047818921F400518181704710B527
:1012200040F66A13C1F3421301F01F040121A140EB
:10123000012B07D0022B07D014303AB102680A43C1
:10124000026010BD0C30F8E71030F6E702688A4300
:10125000026010BD002A03D0828A0A43828270474E
:10126000828A8A4382827047028A22F00F020282B7
:10127000028A0A4302827047828922F400628281D4
:1012800082890A4382817047002904D0818941F014
:10129000020181817047818921F0020181817047BB
:1012A000028A22F020020282028A0A4302827047E6
:1012B000002904D0018A41F4804101827047018AEB
:1012C00021F48041018270470246002012880A42C0
:1012D00000D00120704710B504465B4BC1F30800F5
:1012E000A08000E05B1E80212046FFF7EDFF002874
:1012F00001D1002BF6D110BD00B5034620211846C0
:10130000FFF7E2FF0028F9D09888C0F3080000BD7D
:10131000818941F0010181817047028BD2B2028341
:10132000028B42EA012101837047028B02F47F4263
:101330000283028B0A4302837047002904D0818A0A
:1013400041F0200181827047818A21F02001818251
:101350007047002904D0818A41F0100181827047D2
:10136000818A21F0100181827047002904D0818A8E
:1013700041F0080181827047818A21F00801818251
:101380007047002904D0818941F400418181704770
:101390008189C1F30E0181817047002904D0818ABF
:1013A00041F4006181827047818A21F40061818269
:1013B0007047828A22F004028282828A0A438282F1
:1013C0007047002904D0818A41F002018182704770
:1013D000818A21F00201818270478A05C943018018
:1013E000704770B5002440F66A12C1F3421301F051
:1013F0001F05012606FA05F2012B0CD0022B0DD099
:10140000838A1340090A8E40008830400BB100B136
:101410000124204670BD83891340F3E7038A1340FB
:10142000F0E740F66A120A0A01219140C94301809F
:101430007047000000380140004400400048004070
:10144000004C004000500040FFFF4F0001684FF685
:10145000FE72114001600021016041608160C16045
:101460007249724A0839904204D1486840F00F002E
:10147000486070476D4A1432904204D1486840F089
:10148000F00048607047694A2832904204D14868A9
:1014900040F4706048607047644A3C32904204D126
:1014A000486840F4704048607047604A503290424B
:1014B00004D1486840F47020486070475B4A643249
:1014C000904204D1486840F4700048607047574A21
:1014D0007832904204D1486840F0706048607047AC
:1014E000534A111F904204D1086840F00F00086071
:1014F00070474F4A1432904204D1086840F0F0001F
:10150000086070474A4A2832904204D1086840F483
:10151000706008607047464A3C32904204D10868C7
:1015200040F4704008607047414A50329042FAD10E
:10153000086840F470200860704730B5026847F6CC
:10154000F0739A430C6A8B682343D1E904452C431A
:1015500023438C692343CC6923434C6A23438C6A1D
:10156000234313430360CA6842600A688260496883
:10157000C16030BD0021016041608160C1600161D6
:1015800041618161C16101624162816270470029EC
:1015900004D0016841F001010160704701684FF615
:1015A000FE72114001607047002A03D002680A43AE
:1015B0000260704702688A4302607047416070476A
:1015C000406880B2704702460020D10003D5184918
:1015D0000839096802E0154908390968114200D044
:1015E00001207047C10003D51149091F08607047E9
:1015F0000E4908394860704702460020D10003D5E3
:101600000B490839096802E008490839096811429C
:1016100000D001207047C10003D50549091F0860AB
:1016200070470249083948607047000008000240CE
:10163000080402400D49086070470C494860704733
:101640000A498860704709494AF6AA20086070472D
:1016500006494CF6CC400860704701460020034A1A
:10166000D2680A4200D001207047000000300040DC
:1016700010B5A94988420AD1841401212046FFF7F8
:10168000BEFC2046BDE810400021FFF7B8BCA349CE
:1016900088420AD1041401212046FFF7BBFC2046F2
:1016A000BDE810400021FFF7B5BC9D4988420AD132
:1016B000C41301212046FFF7ADFC2046BDE81040D1
:1016C0000021FFF7A7BC10BD30B5028802F44153DA
:1016D0000A884C88CD8822438C882C4322430C896D
:1016E00022434C8922438C892243CC8922431A43CA
:1016F0000280828B22F400628283098A018230BDDB
:10170000F0B585B005460C46022000210126AA8BC3
:101710004FF240031A40AA8302222A84AF8BA268A8
:10172000022A21D0A08800B102266846FFF7F9FB03
:101730000098E188B1F5007F2CD07101B0FBF1F089
:1017400000EB8000A1684000B0FBF1F0401D80B2CA
:101750000A21B0FBF1F000F00101401AC0F34F0084
:101760004FF6FF7202EA0121821EFE2A01D30220F7
:101770000021E288084302432A8420886188A289E4
:101780000843A18811430843384340F40060A8830C
:1017900005B0F0BD000A00EB8000A1684000B0FB7E
:1017A000F1F0401D80B2D3E70021018041808180AB
:1017B000C180018141818181C181072101827047FE
:1017C0000021018041808180C1800222826081816C
:1017D0007047002904D0018841F040010180704722
:1017E000018821F0400101807047002904D0818BDD
:1017F00041F4806181837047818B21F48061818312
:101800007047090901238B4099B2002A03D08288CE
:101810000A438280704782888A4382807047002A08
:1018200003D082880A438280704782888A438280FC
:1018300070478181704780897047A1F57E42FF3AE9
:1018400004D0018841F4807101807047018821F43F
:10185000807101807047002904D0818841F0040123
:1018600081807047818821F004018180704702885F
:1018700022F40062028002880A43028070470188D5
:1018800041F4805101807047002904D0018841F45F
:10189000005101807047018821F400510180704798
:1018A000012901D0008B7047808A7047008A7047F9
:1018B000B1F5804F04D0018821F480410180704748
:1018C000018841F48041018070470246002012895E
:1018D0000A4200D001207047C9430181704730B5EA
:1018E0000246002001F00F03012505FA03F4A3B21C
:1018F000090905FA01F4A4B29188214012891A421B
:1019000002D0002900D0012030BD01F00F020121DA
:101910009140C943018170470030014000380040C8
:10192000003C00400CB50022019200925248016830
:1019300041F4803101604FF4A063016801F400318B
:1019400000910199491C0191009911B9019999429D
:10195000F3D10168890302D50121009100E00092D2
:101960000099012930D145490A6842F010020A6005
:101970000A6822F003020A600A6842F002020A6062
:101980004168416041684160416841F48061416063
:10199000416821F47C114160416841F4E8114160E3
:1019A000016841F08071016001688901FCD54168DE
:1019B00021F003014160416841F00201416041684A
:1019C000C1F381010229FAD10CBDABE710B52A4859
:1019D000016841F0010101604168294A11404160FC
:1019E0000168284A11400160016821F480210160EA
:1019F000416821F4FE0141604FF41F018160FFF74F
:101A0000E4FF21494FF00060086010BD10B51A4A8C
:101A1000506800F00C011D4B1D4800290ED0042910
:101A20000ED008290ED003605168194AC1F3031182
:101A3000121D515C0268CA40026010BD0360F3E7EA
:101A40000360F1E7516801F47011536803F48033C7
:101A5000022404EB914133B153689B0307D50D4B2E
:101A600059430160E0E70B4B59430160DCE7074B4A
:101A700059430160D8E700000010024000200240F6
:101A80000000FFF8FFFFF6FE08ED00E000127A000C
:101A90001400002000093D0000F0E1FB0349002094
:101AA000087000F07EFB00F05AFCFCE728000020E4
:101AB0007047FEE7FEE7FEE7FEE7704770477047B6
:101AC0007047704770B54FF48055284600F0E7FC2A
:101AD000654802F0A2FA644CE178090703D51421A5
:101AE000284600F0B8FCE178C80605D532214FF44D
:101AF000804000F0B0FC05E0880603D5142128469C
:101B000000F0A9FC584802F088FABDE870401020A7
:101B1000FEF795BD70472DE9F041DFF8508140F2A6
:101B2000255631464046FFF75CFC514C0025A8B1D4
:101B3000657003214FF4006000F08DFC4546284697
:101B4000FFF7DAFB4849627989318854521C627187
:101B500031462846BDE8F041FFF763BC40F22777E5
:101B6000464639463046FFF73CFC012814D1627ADC
:101B7000501C60723F48815C3046FFF7ACFB617AD5
:101B8000207A814208D1002239463046FFF747FBD0
:101B9000657225720120E070BDE8F0812DE9F04109
:101BA000354E40F2255529463046FFF71AFC304C99
:101BB0004FF00008A0B184F800803046FFF79CFB8E
:101BC0002949227909318854521C2271294630460C
:101BD000FFF727FCBDE8F0411E21042000F03BBCCC
:101BE00040F22777354639462846FFF7FAFB40F2A0
:101BF0002666E0B1E179481CE0711E488038415CFE
:101C00002846FFF768FBE179A2799142C4D300220C
:101C100039462846FFF703FB39462846FFF701FC03
:101C200031462846BDE8F0410122FFF7F8BA3146B7
:101C30002846FFF7D6FB0028AED0002231462846C2
:101C4000FFF7EDFA31462846FFF7EBFB02210B4880
:101C5000FFF72AF884F8078084F806800120A07036
:101C6000207099E7704700002C03002000380140E5
:101C700029000020B5040020004400400008014075
:101C800010B5FFF783F84FF480342046FFF797F83C
:101C9000FFF7C3F8FE494870012822D10020FFF762
:101CA000F6F80020FFF701F9A011FFF7F7F802207E
:101CB000FEF7CEFC1020FEF7DBFC4FF4E0112046CF
:101CC000FFF7CEF80120FFF7D3F83920FFF790F89F
:101CD0000028FAD00220FFF7CEF8FFF7D3F8082843
:101CE000FBD14FF44040FFF7F7F80121BDE8104069
:101CF0000846FFF76EB92DE9F84F01213D20FFF7A7
:101D000068F94FF48059ADF8009010258DF8035014
:101D100003248DF80240DFF87CA369465046FEF7A5
:101D200052FF2020ADF800008DF803508DF80240DE
:101D300069465046FEF747FF0120ADF800004827EE
:101D40008DF803706946D448FEF73DFF0426ADF8D0
:101D5000006069465046FEF736FF4FF47060ADF8FC
:101D60000000DFF838B369465846FEF72CFF012122
:101D7000CB48FEF7B9FFCB48416821F02001416014
:101D8000ADF800608DF803706946C748FEF71BFF89
:101D90007820ADF800008DF8037069465846FEF7CC
:101DA00012FF4FF00808ADF800808DF803508DF851
:101DB000024069465046FEF706FF08215046FEF7EE
:101DC00071FF4FF4E040ADF800008DF803508DF83E
:101DD000024069465846FEF7F6FE49465846FEF769
:101DE00061FF69025846FEF75DFFA9025846FEF7FB
:101DF00059FFADF800404FF000098DF80390694697
:101E00005046FEF7E0FEADF800408DF803906946BD
:101E10005846FEF7D8FEADF800508DF803508DF807
:101E2000024069469C48FEF7CEFE10219A48FEF714
:101E300039FFADF800508DF8037069465046FEF743
:101E4000C2FE4020ADF800008DF803508DF802402E
:101E500069465046FEF7B7FEADF8006018278DF8CA
:101E600003708DF8024069468B48FEF7ACFEADF872
:101E700000808DF8036069468748FEF7A4FE0220C3
:101E8000ADF800008DF803508DF802406946824895
:101E9000FEF799FE6801ADF800008DF803708DF82B
:101EA000024069467C48FEF78EFEA801ADF80000AE
:101EB0008DF8036069467848FEF785FEBDE8F88F27
:101EC0001CB51020FEF7BBFB04210220FEF737FFF4
:101ED0001020009000208DF804000C208DF80500E3
:101EE00001208DF806006846FEF74AFB1CBD38B598
:101EF0004FF4A060FEF716F925208DF800000220AF
:101F00008DF8010000248DF8024001258DF8035062
:101F10006846FEF70CF926208DF800008DF8015078
:101F20008DF802408DF803506846FEF700F90A204C
:101F30008DF800008DF801408DF802408DF80350B7
:101F40006846FEF7F4F80021E806FEF720F938BDF0
:101F500070B590B001210846FFF730F80121480222
:101F6000FFF737F8514E3046FFF770FA50480590AA
:101F70004748801C0690002407940425089509947E
:101F800080210A9148000B9080000C9020200D9039
:101F900000020E900F9405A93046FFF7CEFA009488
:101FA00001208DF804008DF805004FF460200290A8
:101FB00003948DF810503E4C69464C3C2046FEF789
:101FC00039F9072301220A212046FEF7BDF907232C
:101FD000022208212046FEF7B7F9072303220B212E
:101FE0002046FEF7B1F90723042209212046FEF717
:101FF000ABF901212046FEF751F901212046FEF7F9
:1020000041F92046FEF761F92046FEF763F9002802
:10201000FAD12046FEF765F92046FEF767F9002859
:10202000FAD110B070BD30B587B001218803FEF73A
:10203000D0FF0024ADF80440ADF806404FF4007026
:10204000ADF80800ADF80A401A4D01A92846FFF77F
:10205000C5F84FF416510391ADF81040ADF8124099
:10206000ADF81440ADF818400C21ADF8161003A9D6
:102070002846FFF74DF840F2255421462846FFF741
:10208000ACF9012221462846FFF7C9F8012113E0E7
:10209000340000200010014000080140000C014005
:1020A00000023000002004E000140140080002405B
:1020B0004C240140003801402846FFF7A4F807B03F
:1020C00030BD7FB501214804FEF78EFF4FF4165056
:1020D00000904FF48050ADF804000020ADF80600E9
:1020E0004FF48061ADF80810ADF80C000C20ADF88D
:1020F0000A006D4C69462046FFF70AF840F2255564
:1021000029462046FFF769F9012229462046FFF7B4
:1021100086F801212046FFF776F87FBD7FB50121C3
:102120008804FEF761FF4FF4165000900020ADF8D0
:102130000400ADF80600ADF80800ADF80C000C2066
:10214000ADF80A00594C69462046FEF7E1FF40F21F
:10215000255529462046FFF740F901222946204609
:10216000FFF75DF801212046FFF74DF87FBD10B560
:102170000120FEF7CAFE6120FEF73AFE0028FAD0E1
:1021800045F25550FFF756FA0320FFF756FA4FF481
:10219000FA60FFF755FAFFF756FABDE81040FFF76F
:1021A00057BA70B586B0012141F20500FEF711FF64
:1021B0003F48404E03240078B0B1A020ADF80000A5
:1021C00010208DF803008DF8024069463046FEF776
:1021D000FAFC4021ADF8001004218DF80310694687
:1021E0003046FEF7F0FC35E0334D00212846FFF77E
:1021F000F0FAE020ADF8000018208DF803008DF80B
:10220000024069463046FEF7DEFC0021ADF80410BE
:102210004FF48270ADF80600ADF80810ADF80A1062
:102220000120ADF80C004002ADF80E003820ADF8EA
:102230001000ADF812100720ADF8140001A92846CF
:10224000FFF742FA01212846FFF7C3FA0121284689
:10225000FFF701FB642001F02DFF06B070BD10B543
:10226000FFF70EFDFFF747FDFFF72AFEFFF73FFEE2
:10227000FFF76EFEFFF7D7FEFFF723FFFFF791FF93
:10228000FFF775FF4FF0E0200C49416100218161AB
:102290000521016100F0ACF8BDE8104041F2883141
:1022A000012000F0D8B80000004400400048004081
:1022B000340000200008014000300140FEFFFF0014
:1022C00010B592480068002801D001F0F3FBBDE88A
:1022D000104001F048BD8D490A6802430A6070470A
:1022E0002DE9F0410646012080F31088874F3C69B4
:1022F000002C2FD000252BE00023A088B04202D86C
:102300000020A08001E0801BA080A08838B9E08870
:1023100028B1206818B1FFF7DEFFE088A080A08810
:1023200038B1206828B12546A4688BB1988848B197
:102330000BE025B1A068A8602346A468F5E7A06873
:102340003861F9E71868FFF7C6FF184602F0B8FCD5
:10235000002CD1D1002080F31088BDE8F08170B549
:102360000020012181F310884FF0E0218969684A3B
:10237000B1FBF2F4654DE9688C4205D2A1EB040093
:10238000A9680144A96010E00FD9A4EB041000EB88
:102390008000C0EB00106FF07F4303EB8010B0FBB8
:1023A000F2F00844A9680144A9604FF0000181F3EC
:1023B000108808B1FFF794FF012080F31088EC60CB
:1023C0005449A868884205D349420844A86068680F
:1023D000401C6860002080F31088FFF771FF002028
:1023E000286070BD494A5368036090680860704770
:1023F000464900200861704701464448006903E0EF
:1024000002688A4202D080680028F9D1704770B50E
:1024100005460C462846FFF7EFFF08B1848070BDE3
:102420000C2002F075FC78B1056084800021C18029
:102430008160364A116911B9106170BD11468A6810
:10244000002AFBD1886070BD002070BD002801D03B
:1024500000210160704710B5012282F31088FFF758
:10246000D6FF002181F3108808B1012010BD0020A3
:1024700010BD10B50C46012282F310882146FFF7EB
:10248000C6FF002800D0C4804FF0000080F3108801
:1024900002D04FF0010010BD4FF0000010BD10B58C
:1024A000012181F31088FFF7A7FF044614B12046ED
:1024B000FFF7CCFF002080F310880CB1012010BD85
:1024C000002010BD10B501460024012080F31088C3
:1024D0000846FFF791FF00B18488002080F3108840
:1024E000204610BD0020012181F3108807490969A9
:1024F00002E0401CC0B289680029FAD181F310883B
:10250000704702490A6882430A6070474000002011
:1025100040190100005C26052DE9F84F00260096C1
:10252000FF4C02226946204601F0ABFC9DF80010EA
:10253000FF2903D19DF80110FF2904D02422F94975
:10254000204601F09EFCF84C02226946204601F02C
:1025500098FC9DF80010FF2903D19DF80110FF2978
:1025600004D01822F149204601F08BFC0020DFF84E
:10257000BCC3DFF8BCA3ACF1180909F108030622BB
:1025800003F1080803F1280BB0FBF2F40CEB000197
:102590001CF800504F7845EA072529F81450B0FB85
:1025A000F2F48D78CF7845EA072523F81450B0FB74
:1025B000F2F4B0FBF2F533F8144004EB8404640049
:1025C0004AF82540B0FBF2F40D79497945EA01213A
:1025D00028F81410B0FBF2F1B0FBF2F438F8111047
:1025E00001EB810149004BF82410801DC0B218286E
:1025F000CAD3CE4902227039CE4801F042FCCB4802
:102600007038A0F1140102784A704078FF2802D097
:102610008870BDE8F88F8E70FBE770B540F22774C4
:10262000022804D001282FD10020C34D1EE0002035
:10263000C24D04E016188E5D2E54401CC0B2984264
:10264000F8D3BF4803700221BE48FEF72BFBBE49FA
:10265000012008702146BDE870400122BB48FEF70A
:10266000DEBD16188E5D2E54401CC0B29842F8D3C1
:10267000B7480370B749002008702146BDE8704094
:102680000122B548FEF7CBBD70BDF0B5FF23FF2496
:102690000022B24EA6F5807707E010F8015B5D409E
:1026A000735D63407C5D521CD2B28A42F5D343EA2B
:1026B0000420F0BD2DE9F04106460C469B4D2078E4
:1026C000843D6978884210D131462046FFF7DDFF0E
:1026D00000280AD1934F60782437032806D0A7F149
:1026E0005801062833D010284BD07FE0E078A1783D
:1026F00040EA01216079227940EA0220E8822278CA
:102700003C463A70032666704006020EA27094485A
:1027100000EB4101E01C01F0F9FEE88A06EB400005
:1027200081B280482430FFF7B0FFE98A04EB410210
:10273000D070000A1071AA780520BDE8F04100EBC6
:102740004100C1B277480023243001F033BDA078A6
:1027500050B9E078032807D82279637942EA032246
:102760007F4B083B23F81020206888656068C865A7
:10277000AA78BDE8F0416B4800230821243001F01D
:1027800019BD20688865A088A1F85C00654806210D
:102790002430FFF77AFFB871000AF871614800230E
:1027A000AA780821243001F005FDE078011F0C29EA
:1027B0000CD2A279E11D5D4801F0A8FE18225B4908
:1027C000594801F018FBBDE8F041A5E61038122881
:1027D0000CD2A279E11D534801F098FE2422514900
:1027E0004F4801F008FBBDE8F04195E62078F0285D
:1027F0005AD16078102857D1E078222854D1314638
:102800002046FFF742FF00284ED1E079412812D040
:10281000474821684163A188018706213430FFF7CA
:1028200034FF434934318871000AC87108230022FB
:102830000220FFF7F2FE3D4E703E3078FF2808D0B0
:1028400038B1E179884206D1402904D8607AFF285E
:1028500001D0207A3070607AFF2807D1E0794128D2
:1028600002D03178814201D1A07A70702F490222C2
:102870007039304801F0BFFAFFF74EFE6879002842
:1028800012D0607AFF280FD1E079412802D0317848
:10289000814209D101F02BFCBDE8F0414FF4FA610F
:1028A0004FF48050FFF7D7BDBDE8F081002302E070
:1028B000C2545B1CDBB28B42FAD370472DE9F04166
:1028C00080460C46194E1A4D843E20787178343576
:1028D000174F88420CD141462046FFF7D6FE00280C
:1028E00006D16078032804D0062854D0102869D077
:1028F0009AE0E078A17840EA01216079227940EA03
:102900000220308372782C462A70032565704006B9
:10291000020EA270124800EB4101E01C22E0000010
:1029200000C001086C06002000C40108D800002087
:102930003805002000C80108B50400203504002037
:102940002F000020000801402B0000200044004020
:10295000310000202C000020003801407C4E00088F
:102960000E4C002001F0D2FD308B05EB400081B20F
:10297000FE48FFF78AFE318B04EB4102D070000A5B
:102980001071BDE8F041052000EB4100C3B2002208
:10299000F649022041E6A07848B9E078032806D835
:1029A0002179627941EA0221F14A22F81010206867
:1029B00078636068B863BDE8F04108230022EB4902
:1029C00002202AE620687863A08838870621E74835
:1029D000FFF75BFEA871000AE87108230022E349B3
:1029E0000220FFF71AFEE078011F0C290CD2A27911
:1029F000E11DE04801F08AFD1822DE49DE4801F0C1
:102A0000FAF9BDE8F04187E5103812280CD2A27916
:102A1000E11DDA4801F07AFD2422D849D84801F0B6
:102A2000EAF9BDE8F04177E52078F02856D16078E2
:102A3000102853D1E078222850D141462046FFF794
:102A400024FEE8BBE079412810D020687863A08894
:102A500038870621C548FFF718FEA871000AE871FB
:102A600008230022C1490220FFF7D7FDC14D703D68
:102A70002878FF2808D038B1E179884206D140296A
:102A800004D8607AFF2801D0207A2870607AFF2865
:102A900007D1E079412802D02978814201D1A07A7A
:102AA0006870B44902227039B64801F0A4F9FFF702
:102AB00033FD707920B1607AFF280FD1E07900E012
:102AC0000CE0412802D02978814207D101F00FFBA8
:102AD0004FF4FA614FF48050FFF7BDFC2078422894
:102AE00032D141462046FFF7D0FD00282CD1607836
:102AF000062829D1A07850B9E078022807D8217992
:102B0000627941EA02219A4A921F22F81010A078B5
:102B100078B9E578022D0CD90C2D0AD82079617985
:102B200040EA012001F028FF9049ED1E243941F8C8
:102B30002500206878636068B863BDE8F041082329
:102B400000228A49022068E5AEE630B5002400EB99
:102B5000C00505EB00158948A43000EBC50525F834
:102B60001320002004E035F810201444401CC0B2AB
:102B70008842F8D3B4FBF1F080B230BD10B5044602
:102B80001046002304EBC40202EB04127B4CA43475
:102B900004EBC20403E024F813005B1CDBB28B429D
:102BA000F9D310BDF0B5B2B000250024764F6E46C3
:102BB00037F810308B4200D20B46934200D91346AF
:102BC00026F81430641CE4B2642CF1D300214C1CB0
:102BD000E0B20BE036F8113036F81020934203D300
:102BE00026F8112026F81030401CC0B26428F1D31A
:102BF000E1B26429EBD3282036F810100D44401CB4
:102C0000C0B23C28F8D31420B5FBF0F080B232B04B
:102C1000F0BD2DE9F84F5748DFF858B18438ABF1D3
:102C20003C0B0078524F01250BF1240800244FF48F
:102C30007F4907F10806A8F1180A00287ED1A8F1FB
:102C40003000017809B9407870B10020009040F25E
:102C50009C5200210098FFF7A5FF024645483838EE
:102C6000007800286BD0ACE00020009040F21952B0
:102C70004FF483710098FFF795FF02463D483838BE
:102C8000007838B964210098FFF778FF0246394888
:102C90003838057037489BF8003040380178009884
:102CA000FFF753FF334938390D709BF80010491C6A
:102CB000C9B28BF800102F4A403A1278914201D3E2
:102CC0008BF800402B49843988810120009040F224
:102CD00019524FF483710098FFF764FF02462548AC
:102CE0003838407838B964210098FFF747FF02462A
:102CF0002048383845701F489BF8013040384178EB
:102D00000098FFF722FF1B4938394D709BF80110DE
:102D1000491CC9B28BF80110164A403A52789142C8
:102D200001D38BF8014013498439C881BAF80020D7
:102D300089898A4201D2AAF8001001E0A8E039E0AE
:102D4000BAF80220824201D2AAF80200B8F80020A4
:102D50004A4504D2BAF800309A4200D23C80B8F812
:102D600002304B4515D2BAF802300FE06C05002056
:102D7000064C0020D800002000C401086C0600208A
:102D800000C0010800C80108360000209A4200D2A5
:102D90007C803170090A7170BAF80010B170090AAC
:102DA000F1703071000A7071BAF80200B071000A57
:102DB000F0716DE064210098FFF7E0FE0246FE48E6
:102DC0000570FD489BF80030083801780098FFF73F
:102DD000BCFEF9490D709BF80010491CC9B28BF874
:102DE0000010F54A083A1278914201D38BF800405E
:102DF000F1494C398881642800D28C81BAF80020CE
:102E00008889824201D2AAF80000C881BAF802205B
:102E1000824201D2AAF80200C97839B934707470BC
:102E2000B470F47034717471B471F471012916D1F5
:102E3000B8F800204A4506D2BAF800309A4202D2C9
:102E400008223A807A803070020A7270BAF8002044
:102E5000B270120AF27034717471B471F471022993
:102E600016D1B8F80210494506D2BAF802209142AC
:102E700002D208213980798034707470B470F47093
:102E80003071000A7071BAF80200B071000AF07176
:102E9000C9484C38007801287DD1C748103881785E
:102EA00009B9C07868B10220009040F29C5200211C
:102EB0000098FFF777FE0246BF48807800286BD065
:102EC00095E00220009040F219524FF4837100986F
:102ED000FFF768FE0246B848807830B96421009850
:102EE000FFF74CFE0246B4488570B3489BF80230A9
:102EF000083881780098FFF728FEAF498D709BF85D
:102F00000210491CC9B28BF80210AB4A083A9278F9
:102F1000914201D38BF80240A7494C390882032023
:102F2000009040F219524FF483710098FFF73AFE77
:102F30000246A148C07830B964210098FFF71EFE10
:102F400002469D48C5709C489BF803300838C178FC
:102F50000098FFF7FAFD9849CD709BF80310491CC3
:102F6000C9B28BF80310944A083AD278914201D33F
:102F70008BF8034090494C394882BAF80420098AFA
:102F80008A4201D2AAF80410BAF80620824201D27D
:102F9000AAF8060001E091E022E0B8F804204A45D2
:102FA00004D2BAF804309A4200D2BC80B8F80620A5
:102FB0004A4504D2BAF806309A4200D2FC803172F7
:102FC000090A7172BAF80410B172090AF172307309
:102FD000000A7073BAF80600B073000AF0736DE06F
:102FE00064210098FFF7CAFD024673488570724855
:102FF0009BF80230083881780098FFF7A6FD6E49EB
:103000008D709BF80210491CC9B28BF802106A4AF5
:10301000083A9278914201D38BF8024066494C39C4
:103020000882642800D20C82BAF80420088A8242FE
:1030300001D2AAF804004882BAF80620824201D2DE
:10304000AAF80600097939B934727472B472F4724C
:1030500034737473B473F473012916D1B8F804206F
:103060004A4506D2BAF804309A4202D20822BA80FF
:10307000FA803072020A7272BAF80420B272120A2E
:10308000F27234737473B473F473022916D1B8F8FE
:103090000610494506D2BAF80620914202D208210C
:1030A000B980F98034727472B472F4723073000AA9
:1030B0007073BAF80600B073000AF0733E484C38DB
:1030C000017811B10470BDE8F88F0570FBE72DE9B8
:1030D000F05F0024DFF8E0B0DFF8E0A00BF1080BB0
:1030E0000BF14807DFF8D890A7F12008A7F19C065C
:1030F0000025344830F814000C2814D2DFE800F022
:10310000063CA6FCFBFA1313F9F813F72A4810380B
:1031100005551838005D38B127492C39085D00285D
:1031200001D0401E08551DE21CB908212648FDF7B4
:10313000B9FD012C03D121034846FDF7B3FD022C54
:1031400003D161034846FDF7ADFD032C04D14FF4D4
:1031500000514846FDF7A6FD1748103030F814100E
:1031600029B1A0F13C021E21115520F8145012483B
:10317000012128380155F5E10F48103805551C3854
:10318000005DC0B95AF8240010B1401E4AF824006E
:103190005AF82400F0BB1CB908210B48FDF784FD48
:1031A000012C03D121034846FDF77EFD022C0FD1EF
:1031B000610348460AE041E0A000002038050020F5
:1031C000000C0140064C002000100140FDF76CFD92
:1031D000032C04D14FF400514846FDF765FD57F824
:1031E0002400FF49401E884201D847F8240057F8C0
:1031F000240078B9FB4820F8145038F8140000EB8C
:103200008000400047F82400F74830F8140000EB35
:10321000800000E002E040004AF82400F24818383C
:1032200030F81410012906D0012120F814102BF8D1
:10323000145010380555EC4850380555EA495439B2
:10324000085D002897D0401E08558BE1E648012113
:10325000383801552CBB001F0078022821D0E248E5
:103260003438007800B3E04834380570DE49012076
:103270003C390870B8F8000000EB8000400038606E
:10328000D948008800EB80004000CAF800000821FF
:10329000D648FDF707FD4FF480514846FDF702FD83
:1032A000F570022C4FD074E0DAF8040018B1401E1B
:1032B000CAF80400F5E70821CC48FDF7F3FC4FF409
:1032C00080514846FDF7F0FCC74B0120343B587055
:1032D000A3F1080C8CF80050F178022904D0ABF867
:1032E000025003F10C014D704FF0020E05E0FEE2BA
:1032F00031E2F3E1A8E18CE196E086F803E0796839
:10330000B74A491E914200D8796079680029C8D12E
:103310005D708CF800E0B8F8020000EB800040001F
:103320007860B148408800EB80004000CAF8040093
:103330000821AE48FDF7B6FC4FF480514846FDF732
:10334000B1FCF570ADE7A8483C388078022820D061
:10335000A54834388078F8B1A34834388570012105
:1033600008388170B8F8040000EB80004000B860B5
:103370009D48808800EB80004000CAF8080089035F
:103380004846FDF78FFC4FF400514846FDF78AFC94
:103390003571641CE4B27BE3DAF80C0018B1401E0E
:1033A000CAF80C00F5E74FF480414846FDF77AFC77
:1033B0004FF400514846FDF777FC8B4A0120343A20
:1033C000D070A2F1080C8CF802503079022804D099
:1033D000ABF8065002F10C00C57002233371F86897
:1033E0007F49401E884200D8F860F8680028D0D194
:1033F000D5708CF80230B8F8060000EB8000400071
:10340000F8607948C08800EB80004000CAF80C00E2
:103410004FF480414846FDF745FC4FF400514846C3
:10342000FDF740FC3571B4E76F4901203839085584
:1034300014BB081F007801281ED0081D4078F0B189
:10344000081D4570022108380170B8F8020000EB31
:103450008000400078606448408800EB80004000B5
:10346000CAF8040008216148FDF71CFC4FF48051A4
:103470004846FDF717FCF570022C49D070E0DAF8E9
:10348000000018B1401ECAF80000F5E708215748AF
:10349000FDF70AFC4FF480514846FDF703FCDFF8C6
:1034A00048C10123ACF1340C8CF80030ACF1080EAB
:1034B0008EF80050F178012904D0ABF800500CF1DF
:1034C0000C010D70F3703968454A491E914200D8CD
:1034D000396039680029CFD18CF800508EF800305F
:1034E000B8F8000000EB8000400038603E480088DB
:1034F00000EB80004000CAF8000008213B48FDF7BF
:10350000D1FB4FF480514846FDF7CCFBF570B3E793
:1035100035483C388078012822D033483438C07888
:1035200008B331483438C5702F4902203C398870BF
:10353000B8F8060000EB80004000F8602A48C08818
:1035400000EB80004000CAF80C004FF48041484670
:10355000FDF7A8FB4FF400514846FDF7A3FB35717A
:10356000641CE4B294E2DAF8080018B1401ECAF80C
:103570000800F5E74FF480414846FDF795FB4FF40E
:1035800000514846FDF78EFBDFF85CC04FF0010E9E
:10359000ACF1340C8CF802E0ACF108039D70317989
:1035A000012904D0ABF8045003F114018D7086F8A2
:1035B00004E0B9680A4A491E914200D8B960B96866
:1035C0000029CDD18CF8025083F802E0B8F804004D
:1035D00000EB80004000B8600348808808E00000ED
:1035E000FFF50900064C0020C80000200010014033
:1035F00000EB80004000CAF808004FF480414846C4
:10360000FDF750FB4FF400514846FDF74BFB357179
:10361000A6E7FE4805551CB90821FD48FDF742FB09
:10362000012C03D121034846FDF73CFB022C03D1BA
:1036300061034846FDF736FB032C93D14FF400514C
:103640004846FDF72FFB23E2F04805555AF82400C1
:1036500038B1401E4AF824002BF81450EB481030C3
:1036600005555AF824000028EDD11CB90821E84876
:10367000FDF71AFB012C03D121034846FDF714FB8B
:10368000022C03D161034846FDF70EFB032C04D145
:103690004FF400514846FDF707FB57F82400DD4979
:1036A000401E884201D847F8240057F8240000281B
:1036B000C9D1D948042120F8141038F8140000EBBF
:1036C0008000400047F82400D048383030F814001B
:1036D00000EB800040004AF82400D9E1CB490120EA
:1036E0000855A1F11000005D38B11439085D08B12A
:1036F000401E0855641CE4B2CAE14CB90821C44814
:10370000FDF7D0FA4FF480514846FDF7CBFAF5703B
:10371000022C08D161034846FDF7C4FA210348464C
:10372000FDF7C0FA3571B949BB48283130F81400AB
:1037300031F81420904205D0A1F13C021E2313550C
:1037400021F81400B1480121103801550830055501
:10375000001F0555CEE7AD490120085501F12800AD
:1037600030F814000B281DD14CB90821A848FDF7EA
:1037700099FA4FF480514846FDF794FAF570022CFF
:1037800008D161034846FDF78DFA21034846FDF74D
:1037900089FA35719D4832211438015509213C3090
:1037A00020F8141099481438005DE8BB97480C388D
:1037B000005D18B195480838005DA8BBACBB9348C4
:1037C000001F0078012838D008219148FDF76CFAD5
:1037D0004FF480514846FDF765FA8C48283001883F
:1037E000092901D009210180F078012804D0ABF823
:1037F00000508648103005700120F0703868854907
:10380000401E884200D83860386870B90821804866
:10381000FDF748FA4FF480514846FDF743FAF5703A
:103820007A490120091F01E04DE006E00870B8F870
:10383000000000EB800040003860022C3AD1734851
:10384000001F8078012835D061034846FDF72CFA27
:1038500021034846FDF726FA6C482830818809295B
:1038600001D0092181803079012804D0ABF80450BF
:1038700066481030857001203071B8686549401E77
:10388000884200D8B860B868A0B94FF48041484673
:10389000FDF708FA4FF400514846FDF703FA357179
:1038A0005A490120091F8870B8F8040000EB800015
:1038B0004000B860554810380555022108300155C0
:1038C0001E21001F015551491439085D08B1401EE1
:1038D00008554E480838005D022805D04B490C3980
:1038E000085D08B1401E0855641CE4B2D0E04749A9
:1038F0000120085501F1280030F8140009281DD1D5
:103900004CB908214248FDF7CDF94FF480514846A3
:10391000FDF7C8F9F570022C08D161034846FDF7A0
:10392000C1F921034846FDF7BDF935713748322109
:10393000143801550B213C3020F81410334814384A
:10394000005DE8BB31480C38005D18B12F480838DD
:10395000005DA8BBACBB2D48001F0078022838D002
:1039600008212B48FDF79EF94FF480514846FDF79A
:103970009BF92648283001880B2901D00B210180B2
:10398000F078022804D0ABF802502048103045707F
:103990000220F07078681F49401E884200D8786085
:1039A000786870B908211A48FDF77CF94FF4805106
:1039B0004846FDF777F9F57014490220091F01E028
:1039C00053E006E00870B8F8020000EB8000400009
:1039D0007860022C42D10D48001F807802283DD02B
:1039E00061034846FDF75EF921034846FDF75CF99F
:1039F0000648283081880B2901D00B21818030793D
:103A000002280DD0ABF80650004807E090000020D7
:103A100000100140FFF50900064C00201030C57071
:103A200002203071F868D649401E884200D8F860FC
:103A3000F86898B94FF480414846FDF733F94FF4E0
:103A400000514846FDF72EF93571CE4902208870A5
:103A5000B8F8060000EB80004000F860C9480C3858
:103A60000555C8490120091F0855C6491039085D88
:103A700008B1401E0855C348001F005D012805D04D
:103A8000C0490839085D08B1401E0855641CE4B2FD
:103A9000641CE4B2032C7FF62CABBDE8F09F10B59C
:103AA0000121B948FDF773FDBDE810400121B74879
:103AB000FCF723BC2DE9FC5F0446B24D383D286D70
:103AC00000F078FF0022B24B00F075FE00F059FFC5
:103AD000E883B04FDFF8C082E0074FF4005A4FF49C
:103AE00080594FF000064ED00221AC48FDF7DCF8BB
:103AF00020214046FDF7D8F8FEF70EFDFFF7CFFF77
:103B00007B20FDF775F9B8B108214046FDF7CAF8EA
:103B100049463846FDF7C6F84FF480413846FDF770
:103B2000C1F851463846FDF7BDF89D48066046602D
:103B30001021083000F003FDFDF781FA687930B1FB
:103B400000F0D5FA4FF4FA614846FEF784FC4FF4D2
:103B5000FA614FF48070FEF77EFC4FF47A7110200A
:103B6000FEF779FC42F210714FF40040FEF773FC4F
:103B70004FF4166B59465046FEF76DFC59464FF40C
:103B80008030FEF768FC20214046FDF781F8C0F147
:103B90000100C2B220214046FDF788F8E00605D5B5
:103BA000FFF795FA64211020FEF755FCA00412D50A
:103BB000E879142800D1EE71E879411CE971714966
:103BC000743131F81010E88B00F04FFC4FF47A712B
:103BD0005046FEF740FC600303D54FF48020FEF70B
:103BE0005EFCE0031AD5E87A012807D10821404697
:103BF000FDF75AF849463846FDF754F8E87A0228A6
:103C000007D108214046FDF74DF849463846FDF7F3
:103C10004BF8698B4FF40030FEF71DFCA00315D55F
:103C200008214046FDF73EF849463846FDF73AF888
:103C30004FF480413846FDF735F851463846FDF7D8
:103C400031F8A98B4FF48030FEF705FCE0054FF00A
:103C500001070CD56E72FEF7DCFF4FF49671380247
:103C6000FEF7F9FBA87AFA2860D8401CA872A007D2
:103C700005D54C4807704C49287AFEF71FFE6007AF
:103C80000FD54A480178491ECAB2494901F8012BAB
:103C900007702A72444800F039FC03210220FEF725
:103CA000DAFBDFF810A1E00419D5AE7100229AF812
:103CB00000104148FEF7FAFD002141F20D2000F00E
:103CC0001FFA012141F20E2000F01AFA03200090A1
:103CD0000022019008231146A87800F0A3FA60049E
:103CE00016D549464046FCF7D3FFC0F10100C2B2E9
:103CF00049464046FCF7DAFF2F4800F0B6FA8AF84A
:103D000000002D49FEF7D6FC32214846FEF7A3FB02
:103D1000200426D5AE72687A32280BD8401C68720F
:103D2000A879B4280AD8401CA87112E087F3138838
:103D300000F01BF887F3138800F017F86F71AE716D
:103D4000FEF7EAFB00F0D3F94FF4FA614846FEF7BC
:103D500082FBBDE8FC5F42F210714FF40040FEF7B9
:103D60007ABBBDE8FC9FFDF76EBC14480168144A9D
:103D700001F4E06111430160BFF3408FFEE70000F2
:103D8000FFF509008C0000200800024000240140DB
:103D900000001E40000C01400010014000080140DE
:103DA000064C002029000020EC0500202D000020FA
:103DB0003503002033000020AC0200200CED00E0B1
:103DC0000400FA05F8B506460D4617460420009093
:103DD000002408E029883046FCF75AFD0090A41C16
:103DE000A4B2B61CAD1CBC4203D29DF8000004284E
:103DF000F0D03846F8BD2DE9F043A1B080468946A1
:103E0000154604200090FCF742FC4FEA98274FEA41
:103E10008727C8F30900C0F58060854201D80126D4
:103E200005E0281A810504D0022101EB9026002428
:103E300009E0012101EB9026F9E707EB8420FCF76C
:103E400059FC0090641CB442F7D39DF8000004288C
:103E500004D04FF0FF3021B0BDE8F0832A46494638
:103E600001A800F053FBE80701D0681C00E02846D9
:103E700082B201A94046FFF7A5FFFCF714FC2846D3
:103E8000E9E710B50346002003E013F8014B0C549A
:103E9000401C9042F9DB10BD704700EB80008000B1
:103EA00000E0401E0028FCD170472DE9F041064695
:103EB000F848007800282AD000240025F64F300664
:103EC00004D580213846FCF7EDFE03E0802138461A
:103ED000FCF7EAFE7006060E6006040E2021384646
:103EE000FCF7E0FE1420FFF7D8FF40213846FCF72E
:103EF000C5FE08B144F0010420213846FCF7D4FE89
:103F00006D1CEDB2082DDAD32046BDE8F081E34CFC
:103F100002212046FDF7D9FC0028F9D03146204681
:103F2000FDF787FC01212046FDF7CFFC0028F9D0E2
:103F30002046FDF780FCC0B2E7E770B5D54C4FF4E2
:103F40007A706060D44E10213046FCF7ADFE4420FC
:103F5000FFF7ABFF0020FFF7A8FF05461021304612
:103F6000FCF7A0FEFDF76FFB6068401E6060FF2D50
:103F700001D00028E7D16068002801D1C849087045
:103F800070BD70B504460D46FFF7D7FFC24E102135
:103F90003046FCF789FE4420FFF787FF04E000204D
:103FA000FFF783FF04F8010B6D1EEDB2F7D2304628
:103FB000BDE870401021FCF775BE70B505460C4693
:103FC000FFF7BBFFB44E10213046FCF76DFE03E057
:103FD00015F8010BFFF769FF641EE4B2F8D2304612
:103FE000BDE870401021FCF75DBE08B534208DF8A7
:103FF000000002208DF8010002216846FFF7DDFF76
:1040000008BD08B534208DF8000008208DF80100A7
:1040100002216846FFF7D1FF08BD38B504462021CC
:104020008DF8001000218DF801108DF802108DF828
:10403000031004216846FFF7C0FF09212046FFF75F
:10404000A0FF38BDFEB508AC70CC13278DF800700A
:104050008DF801008DF802108DF803208DF80430E2
:104060008DF805408DF806508DF8076008216846E8
:10407000FFF7A3FF08216846FFF783FFFEBDFEB5EB
:104080000020844E083607E0401C84B230192946CF
:10409000FFF793FF601980B2355C002DF4D100204A
:1040A0006721CDE900106023612201460290FFF7ED
:1040B000C9FFFEBD4FF4FA51484300E0401E0028FE
:1040C000FCD1704710B5774C40212046FCF7EAFD43
:1040D0000A20FFF7E2FE40212046FCF7E5FD102113
:1040E0006D48FCF7DFFDBDE810400A20E2E710B59F
:1040F000FFF7E8FFFFF7C3FFBDE810406A488CE711
:104100001CB511228DF80020020A8DF80120012231
:104110008DF802208DF803008DF804100521684603
:10412000FFF74BFF1CBD38B5044612218DF8001077
:104130008DF8011002218DF802100D218DF8031069
:1041400004216846FFF739FF03212046FFF719FFD6
:1041500038BD08B515208DF8000002208DF801004B
:1041600002216846FFF729FF08BD08B515208DF824
:10417000000001208DF8010002216846FFF71DFFB5
:1041800008BD38B50446012100916846FFF715FFC8
:1041900008212046FFF7F5FE38BD38B50446332127
:1041A000009101216846FFF708FF03212046FFF731
:1041B000E8FE38BD2DE9FC4705460C4617469846F3
:1041C000FFF7C7FFFFF7D1FFFFF70FFFDFF8C8903A
:1041D00010214846FCF768FD6620FFF766FE601C6C
:1041E000C6B22046FFF761FE03E015F8010BFFF7AA
:1041F0005CFE641EE4B2F8D210214846FCF752FD82
:1042000031208DF800008DF801708DF802800020BB
:104210008DF803008DF8046005216846FFF7CDFE98
:10422000BDE8FC872DE9FC470546DDE90A890E4615
:1042300014461F46FFF78DFFFFF797FF32228DF8D8
:1042400000208DF801508DF80260200A8DF80300DF
:104250008DF804408DF805708DF806808DF8079074
:1042600008216846FFF7A9FEDAE72DE9F041054687
:10427000FFF7BBFEFFF761FE074F10213846FCF742
:1042800013FD7720FFF711FE0020FFF70EFE044616
:10429000264610E0300100200008014000300140B7
:1042A0005900002000100140300A00200020FFF7D4
:1042B000FCFD05F8010B641EE4B2F7D2102138466C
:1042C000FCF7F0FC304620E670B50446104620604E
:1042D0006160A360834AE260834A226100226261D6
:1042E000A16100F089F90546804900F08BF9E06191
:1042F00028467F4900F086F9206228467D4900F073
:1043000081F9606270BD2DE9F84F8B46924600F04E
:1043100051FB21F0004504464FF00008504600F0E4
:1043200049FB02460B462046294600F057FB02D8BF
:104330004FF07E5820E0584600F03CFB8146024694
:104340000B4600912046294600F060FB14D35146ED
:10435000584600F051F900F02DFB06460F46224664
:104360002B464846009900F020FA32463B4600F0C2
:1043700094FA00F063FB80464046BDE8F88F2DE9D3
:10438000F047044608465C4900F03CF9814649463E
:10439000A06800F031F90746D4F81880D4E9071274
:1043A0003846FFF7B0FF8246606A00F003FB05461F
:1043B0000E46384600F0FEFA21F000412A46334608
:1043C00000F024FB15D23846616900F015F9064665
:1043D0005146206900F016F9394600F013F90546F8
:1043E0003146E06800F00EF9294600F0B3F80146C6
:1043F00026E0606A00F0DEFA05460E46D4E90110B8
:1044000000F0FAF800F0D6FA21F000412A463346CF
:1044100000F0E4FA13D2606A00F0CCFA05460E46CA
:104420004846616800F0E8F800F0C4FA21F0004165
:104430002A46334600F0D2FA01D2D4F80480002193
:10444000404600F087F805462846216800F01CFB2E
:1044500000D825686168284600F00CFB00D8656824
:104460006761A561BDE8F087704708B5002200923A
:10447000401A0090BDF900302048002B02DD0122D7
:10448000027007E0BDF90030002B02DA0222027050
:1044900000E00270BDF90000002800DA4042184B2D
:1044A000184AB0EB510F01DD18881080BDF90000EB
:1044B000002800DA4042B0EB510F0ADABDF90000E3
:1044C000002800DA4042B0EBD10F02DD588810809E
:1044D00001E09888108010880B49C0F57A70088038
:1044E00008BD00009A99993E3333B33ECDCC4C3F82
:1044F000CDCC4C3E0AD7A33B0000F0405F0000202B
:10450000280100206E0000207000002040EA010316
:104510009B0703D009E008C9121F08C0042AFAD279
:1045200003E011F8013B00F8013B521EF9D270473D
:10453000D2B201E000F8012B491EFBD270470022E5
:10454000F6E710B513460A4604461946FFF7F0FF92
:10455000204610BDF0B480EA0102D40F4200B2EB55
:10456000410F02D20246084611464A0042D0C30D0E
:10457000DDB2C1F3C752AD1A202D35DAC1F31601F1
:1045800041F4000204B15242C5F1200602FA06F1DC
:104590002A411044B3EBD05F23D0C4B1012DA0EB6E
:1045A000C35009DCF0BC4FF0004202EAC352DBB258
:1045B00000F5000000F0ACBA400000F1807000EBA4
:1045C000C350A0F1807040EAD170490009E0490869
:1045D00041EAC071A0EBC35000F50000400800EBB9
:1045E000C350F0BC00F08BBA6142012202EB4101E2
:1045F000001BF6E7F0BC704781F00041AAE780F0AD
:104600000040A7E780EA010210B502F00043400035
:1046100022D04A001FD0010E01EB1261C0F35600F8
:10462000C2F3560240F4000042F40002A0FB022054
:1046300000047F39140400D0401C50EA124001D419
:104640004000491EC2B20C0604EBD010401C4008CA
:10465000802A02D003E0002010BD20F001000029D4
:1046600000DA0020184310BD2DE9FE4F804681EA94
:104670000300C00F0C46009021F0004123F00045DC
:10468000B8EB0200A94105D24046214690461C469F
:104690000B46024623F00040104347D0270DC7F3D6
:1046A0000A00C3F30A510290401A019040286BDAC5
:1046B000C3F3130040F4801B0098924620B10023FE
:1046C000D2EB030A63EB0B0B01985946C0F1400291
:1046D000504600F0E3F906460D4650465946019A09
:1046E00000F0FBF910EB08006141002487EA115249
:1046F00084EAE7731A4340D0009A62B3019A012A10
:104700004FEA075215DC001B61EB02014FF000423B
:1047100002EA0752CDE90042001C41F58011324601
:104720002B4600F032FA03B0BDE8F08F4046214638
:10473000F9E7001B61EB0201001C41F58013001832
:104740005B412018A2F5001747EB030140EAD57042
:10475000B6196D4111E06D084FEA360645EAC0759D
:104760004FEA0752001B61EB0201001C41F580116A
:1047700049084FEA30000019514132462B4603B038
:10478000BDE8F04F00F0F2B900980122400000238C
:10479000D0EB020263EBE073009821464FEAE0742D
:1047A000B8EB000061EB0401E9E783F000435BE74D
:1047B00081F0004158E72DE9FE4F81EA030404F03F
:1047C000004421F0004100944FF0000B23F000431F
:1047D00050EA01045ED052EA03045BD0C3F30A54EA
:1047E000C1F30A552C44A4F2F3340194A0FB025403
:1047F000C1F3130141F48011C3F3130343F4801395
:1048000001FB024400FB034E840A970A44EA8154E8
:1048100047EA8357A4FB076802958D0A05FB0785C5
:104820004FEA932C04FB0C542705029D4FEA0658CF
:1048300047EA1637B5EB08056EEB070C870E920EAC
:1048400047EA811742EA8312A7FB0201B6EB0B018C
:1048500064EB00042B0D43EA0C335E1844EB1C5050
:10486000DA465146E7FB0201C5F313044FEA0B3366
:1048700043EA14534FEA0432019C43EA0603A4F1CD
:104880000C040294009CCDE900B400F07EF903B062
:10489000BDE8F08F00200146F9E72DE9F04D81EAEF
:1048A000030404F0004B21F0004514464FF0000AC9
:1048B00023F0004150EA050220D054EA01021DD045
:1048C000C5F30A570246C5F31303C1F31300C1F33E
:1048D0000A5640F4801543F48013A7EB0608101B1A
:1048E000D64608F2FD3873EB050002D308F1010843
:1048F00001E092185B41B8F1000F03DA0020014695
:10490000BDE8F08D00204FF48011064684460EE08D
:10491000171B73EB050705D3121B63EB0503064357
:104920004CEA010C49084FEA300092185B4150EA0A
:104930000107EDD152EA030012D082EA040083EAB3
:104940000501084305D0101BAB4106D2012200230C
:1049500006E000224FF0004302E06FF00102531026
:104960001AEB06004CEB085110EB0A0041EB0B016F
:10497000BDE8F04D00F0FAB896230022114600F091
:10498000C7B8C1F30A5210B5C1F3130140F2FF33A7
:1049900041F480119A4201DA002010BD40F2334305
:1049A0009A42A2F2334203DC524200F086F810BD74
:1049B000904010BD00F0004230F000400AD0C10D20
:1049C00001F56071C0F3160042EA0151C2084007C8
:1049D00011437047002001467047000030B5041EA7
:1049E00071F1000404DB4FF00044404264EB01012C
:1049F000141E73F1000405DB1C464FF000435242C5
:104A000063EB04038B4208BF824230BD30B5041E05
:104A100071F1000404DB4FF00044404264EB0101FB
:104A2000141E73F1000405DB1C464FF00043524294
:104A300063EB0403994208BF904230BD01F000438C
:104A400030B421F0004150EA010206D00A0DA2F56F
:104A50006072C1F31301002A02DC30BC00207047F1
:104A6000440F44EAC104C100E01830BC00EBC2505E
:104A700000F045B8002801DBC0F10040002901DB4F
:104A8000C1F1004181427047002801DBC0F10040C4
:104A9000002901DBC1F1004188427047202A04DB74
:104AA000203A00FA02F1002070479140C2F1200341
:104AB00020FA03F3194390407047202A04DB203A80
:104AC00021FA02F00021704721FA02F3D040C2F12E
:104AD00020029140084319467047202A06DBCB1775
:104AE000203A41FA02F043EAE07306E041FA02F3A9
:104AF000D040C2F120029140084319467047002976
:104B0000A8BF7047401C490008BF20F00100704753
:104B100010B4B0FA80FC00FA0CF050EA010404BFB3
:104B200010BC704749B1CCF1200421FA04F411FA09
:104B30000CF118BF012121430843A3EB0C01CB1D4D
:104B40004FEA00614FEA102042BF002010BC7047BE
:104B500000EBC35010440029A4BF10BC7047401C98
:104B6000490008BF20F0010010BC704710B5141EAA
:104B700073F1000408DA401C41F1000192185B4116
:104B80001A4301D120F0010010BD2DE9F04D9246ED
:104B90009B4611B1B1FA81F202E0B0FA80F2203204
:104BA0009046FFF77BFF04460F4640EA0A0041EAC1
:104BB0000B0153465A46084313D0114653EA0100ED
:104BC00019D0C8F140025046FFF777FF05460E4660
:104BD000504659464246FFF761FF084305D0012081
:104BE00004E020463946BDE8F08D0020054346EA42
:104BF000E0762C4337430A986305E40AA0EB0800EB
:104C00000022FD0A44EA47540A3002D5002001463A
:104C1000E9E7010510196941DDE908450019694115
:104C2000BDE8F04DA2E70000064C074D06E0E06845
:104C300040F0010394E8070098471034AC42F6D3E3
:104C4000FBF758FA7C4F00089C4F000870B58C1891
:104C500010F8015B15F0070301D110F8013B2A1190
:104C600006D110F8012B03E010F8016B01F8016B7D
:104C70005B1EF9D12B0705D40023521E0DD401F879
:104C8000013BFAE710F8013BCB1A921C03E013F842
:104C9000015B01F8015B521EF9D5A142D8D3002077
:104CA00070BD02E008C8121F08C1002AFAD170477F
:104CB0007047002001E001C1121F002AFBD170479C
:104CC00010B5002821D0114B0022001F196803E005
:104CD000814203D80A4649680029F9D152B11368C4
:104CE000841A9C4204D1006818441060104602E007
:104CF000506000E0186039B102680B1A934203D18A
:104D00000B681A4402604968416010BDA40200208B
:104D1000F0B50B30154D20F007010024144A0FE0C8
:104D200003688B420BD38B4205D95E1A4318476840
:104D3000C3E9006700E04368136002C004E0021D9D
:104D400010680028ECD12046002802D1286808B15C
:104D50000020F0BD064A07481060074A121A22F0E8
:104D60000702C0E9002401202860D7E7A80200203C
:104D7000A4020020440A0020400C002000C0C10111
:104D8000C30302C2C60607C705C5C404CC0C0DCDBB
:104D90000FCFCE0E0ACACB0BC90908C8D81819D92B
:104DA0001BDBDA1A1EDEDF1FDD1D1CDC14D4D5155B
:104DB000D71716D6D21213D311D1D010F03031F14B
:104DC00033F3F23236F6F737F53534F43CFCFD3D7B
:104DD000FF3F3EFEFA3A3BFB39F9F83828E8E9296B
:104DE000EB2B2AEAEE2E2FEF2DEDEC2CE42425E51B
:104DF00027E7E62622E2E323E12120E0A06061A18B
:104E000063A3A26266A6A767A56564A46CACAD6D3A
:104E1000AF6F6EAEAA6A6BAB69A9A86878B8B979AA
:104E2000BB7B7ABABE7E7FBF7DBDBC7CB47475B5DA
:104E300077B7B67672B2B373B17170B050909151CA
:104E40009353529296565797559594549C5C5D9DFA
:104E50005F9F9E5E5A9A9B5B9959589888484989EA
:104E60004B8B8A4A4E8E8F4F8D4D4C8C448485459A
:104E700087474686824243834181804000C181400A
:104E800001C0804101C0804100C1814001C080411A
:104E900000C1814000C1814001C0804101C080410A
:104EA00000C1814000C1814001C0804100C18140FA
:104EB00001C0804101C0804100C1814001C08041EA
:104EC00000C1814000C1814001C0804100C18140DA
:104ED00001C0804101C0804100C1814000C18140CA
:104EE00001C0804101C0804100C1814001C08041BA
:104EF00000C1814000C1814001C0804101C08041AA
:104F000000C1814000C1814001C0804100C1814099
:104F100001C0804101C0804100C1814000C1814089
:104F200001C0804101C0804100C1814001C0804179
:104F300000C1814000C1814001C0804100C1814069
:104F400001C0804101C0804100C1814001C0804159
:104F500000C1814000C1814001C0804101C0804149
:104F600000C1814000C1814001C0804100C1814039
:104F700001C0804101C0804100C181409C4F0008B8
:104F800000000020AC0200004C4C0008205100083A
:104F9000AC020020940D0000B24C0008450204064B
:104FA000082D0102030404150607080984A24A0417
:104FB00069144A010149140124D925032EFFFF1A5F
:104FC0003201A1031070415A08025AFF0189688911
:104FD000120918068904120A120F12141223122839
:104FE0001232123C124612501255125A125F1264BB
:104FF0001278126F7AA0021AC8209A14D7140702E6
:10500000012701C9C38008132461606713061112C8
:105010000212521305111008010360061101021754
:10502000013808110204230A09150D11100913088B
:1050300014430F311509111105100A03053E0B1A0F
:105040000B1112071C8401088A1009021011120C9E
:10505000080A01133030140106823A3F11B31422BA
:105060002911C2209E0D1112092C1F13200C1203AE
:105070001E07061A80059A11101205051120010C51
:10508000760C112008180180080380100D20200DD7
:10509000112009220177015D862810AF02C20B1191
:1050A00020072C0436801D1004802D2B35E220159E
:1050B000381152521A1A932A2A0E1642A402D68383
:1050C0002DAD0180FF222B4C03062B4E40061751BD
:1050D0000A1011210C280DA28126AF3FEEC8C7DBB4
:1050E000F20208115F0C070315FC0F1729114A186B
:1050F0001C4917150811220413087F163D0B1123B4
:1051000007D00C2C0E0B040C73031011300C150C73
:105110001140089009380DDDDD444420FE000000F8
:04000005080000ED02
:00000001FF
